:020000040800F2
:1000000000900020C1310008C52C0008C72C000852
:1000100000000000000000000000000000000000E0
:10002000000000000000000000000000A9680008B7
:100030000000000000000000116900085569000878
:1000400011320008000000001132000811320008CF
:10005000113200081132000811320008C92C0008C2
:1000600000000000113200081132000811320008AF
:10007000113200081132000811320008000000009F
:100080001132000811320008113200081132000844
:100090001132000811320008D92C00081132000872
:1000A0001132000811320008113200081132000824
:0800B0001132000811320008B2
:1000C000002243088B4274D303098B425FD3030A97
:1000D0008B4244D3030B8B4228D3030C8B420DD3AA
:1000E000FF22090212BA030C8B4202D31212090238
:1000F00065D0030B8B4219D300E0090AC30B8B4276
:1001000001D3CB03C01A5241830B8B4201D38B0323
:10011000C01A5241430B8B4201D34B03C01A5241C8
:10012000030B8B4201D30B03C01A5241C30A8B420B
:1001300001D3CB02C01A5241830A8B4201D38B02F6
:10014000C01A5241430A8B4201D34B02C01A52419A
:10015000030A8B4201D30B02C01A5241CDD2C3090C
:100160008B4201D3CB01C01A524183098B4201D388
:100170008B01C01A524143098B4201D34B01C01A73
:10018000524103098B4201D30B01C01A5241C308EB
:100190008B4201D3CB00C01A524183088B4201D35A
:1001A0008B00C01A524143088B4201D34B00C01A46
:1001B0005241411A00D20146524110467047FFE7B2
:1001C00001B5002000F0F0F802BDC0460029F7D0CC
:1001D00076E7704703460B437FD4002243088B42E7
:1001E00074D303098B425FD3030A8B4244D3030BBE
:1001F0008B4228D3030C8B420DD3FF22090212BA83
:10020000030C8B4202D31212090265D0030B8B42FE
:1002100019D300E0090AC30B8B4201D3CB03C01AE8
:100220005241830B8B4201D38B03C01A5241430BC3
:100230008B4201D34B03C01A5241030B8B4201D3B3
:100240000B03C01A5241C30A8B4201D3CB02C01A1E
:100250005241830A8B4201D38B02C01A5241430A96
:100260008B4201D34B02C01A5241030A8B4201D385
:100270000B02C01A5241CDD2C3098B4201D3CB012C
:10028000C01A524183098B4201D38B01C01A5241DB
:1002900043098B4201D34B01C01A524103098B42DF
:1002A00001D30B01C01A5241C3088B4201D3CB00CA
:1002B000C01A524183088B4201D38B00C01A5241AD
:1002C00043088B4201D34B00C01A5241411A00D25D
:1002D00001465241104670475DE0CA0F00D04942C6
:1002E000031000D34042534000229C4603098B4236
:1002F0002DD3030A8B4212D3FC22890112BA030ABE
:100300008B420CD3890192118B4208D3890192113F
:100310008B4204D389013AD0921100E08909C309C4
:100320008B4201D3CB01C01A524183098B4201D3C6
:100330008B01C01A524143098B4201D34B01C01AB1
:10034000524103098B4201D30B01C01A5241C30829
:100350008B4201D3CB00C01A524183088B4201D398
:100360008B00C01A5241D9D243088B4201D34B00B3
:10037000C01A5241411A00D20146634652415B10F5
:10038000104601D34042002B00D5494270476346D6
:100390005B1000D3404201B5002000F005F802BD1B
:1003A0000029F8D016E770477047C0468446100011
:1003B00062468C461900634600E0C0461FB507F050
:1003C00041FE002801D40021C8421FBD10B507F02E
:1003D00091FD4042013010BD10B507F033FE0028FA
:1003E00001DB002010BD012010BDC04610B507F094
:1003F00029FE002801DD002010BD012010BDC046EF
:1004000010B507F0B9FD002801DC002010BD012067
:1004100010BDC04610B507F0AFFD002801DA00207E
:1004200010BD012010BDC0461C2101231B049842B1
:1004300001D3000C10391B0A984201D3000A083975
:100440001B09984201D30009043902A2105C40182C
:100450007047C046040302020101010100000000D0
:1004600000000000002B11D1002A0FD1002900D17B
:10047000002802D00021C943080007B4024802A1A5
:100480004018029003BDC04621FFFFFF03B4684639
:1004900001B5029810F0BEFE019B9E4602B00CBC56
:1004A0007047C04610B5002903D1FFF7BDFF2030CB
:1004B00002E00800FFF7B8FF10BDC0460448054B36
:1004C00010B5834203D0044B002B00D0984710BDD9
:1004D000041600200416002000000000064807490A
:1004E000091A8B10C90FC91810B5491003D0044B55
:1004F000002B00D0984710BD0416002004160020E1
:100500000000000010B5074C2378002B09D1FFF73D
:10051000D5FF054B002B02D0044800E000BF0123AB
:10052000237010BD0816002000000000E813010829
:10053000054B10B5002B03D00449054800E000BF6F
:10054000FFF7CCFF10BDC046000000000C160020D5
:10055000E813010810B5064864230222A02103F025
:10056000CDFE002801D1013010BD0020FCE7C046BF
:100570002C1B0020F0B5CE46474680B585B005005F
:100580000F0016009846254B1B78012B40D0234BBB
:1005900001221A7002F05EFE814622E0B4B2EB1135
:1005A00006211940A023194309B2FF222A4089B22B
:1005B0001B486423029301940097633B03F0FAFC09
:1005C000002820D10A3006F0E4F8361B3F192D1917
:1005D000ADB2002E0DD002F03DFE4B46C01A404594
:1005E0000CD20F232B401024E41AA4B2B442D6D963
:1005F000D4E70A4B00221A7001200AE0074B0022C0
:100600001A70002005E0054B00221A70002000E05F
:10061000002005B0C0BCB946B046F0BD241600208D
:100620002C1B002030B585B00D001400134B1B7837
:10063000012B20D0114B01221A70C2110623134046
:10064000A02213431BB2FF22024099B20C4864233C
:100650000293A4B201940095633B03F07BFD002854
:1006600004D1064B00221A70013005E0034B002232
:100670001A70002000E0002005B030BD24160020D4
:100680002C1B002010B5102800D010BD08214848B0
:1006900003F058FA012814D0464B1B78032B00D1E5
:1006A0007CE053D8012B5DD0022B73D1424B00224A
:1006B0001A80424B1A68D26A1A60414B00221A70A3
:1006C00068E03C4B1B78032B37D00ED8012B18D099
:1006D000022B2ED1384B00221A80384B1A68926AAE
:1006E0001A60374B00221A7023E0043BDBB2022B66
:1006F0001FD8324B1B689B6A002B1AD02F4A1360FD
:1007000017E02D4B00221A802E4B1888053880B236
:10071000188008F075FB2C4A2C4B07F0B9FF2C4AC7
:100720002C4B07F0F9F82C4B186059602B4B012229
:100730001A702B4B01221A70A7E71E4B01221A7068
:10074000284B00221A701C4B1A80F2E7043BDBB2E4
:10075000022B1FD8194B1B68DB6A002B1AD0174AD3
:10076000136017E0144B00221A80164B18880530CE
:1007700080B2188008F044FB134A144B07F088FF3E
:10078000134A144B07F0C8F8134B18605960134B09
:1007900001221A70124B01221A7076E7054B0122D2
:1007A0001A70104B00221A70034B1A80F2E7C046F1
:1007B0000004005000000020FA1A0020040000206D
:1007C000FC1A0020181B0020AE47E17A148E3D4031
:1007D000DBF97E6ABCA44A40201B0020FE1A0020E0
:1007E000F81A0020F91A002010B5202800D010BDFA
:1007F000144B1B78022B18D00CD8012B02D1114BB3
:1008000002221A70104B1B78032B17D80F4B0122B2
:100810001A70ECE7043BDBB2022BF3D80C4B1B68DD
:100820005B6B002BEED09847ECE7094A13681B6B13
:1008300013605B680333034A1370E3E7054808F06D
:100840004DFCE3E70000002008000020F81A00201B
:10085000040000206414010870B508F0D1FA0022E9
:100860001F4B07F053FC00221E4B07F011FF040042
:100870000D0000221C4BFFF7AFFD002814D0002212
:10088000194B2000290007F003FF184A184B07F006
:100890003DFC02000B002000290006F0DDFC0400F6
:1008A0000D002000290070BD0022124B20002900FD
:1008B000FFF79CFD0028F4D122002B0000200D49F9
:1008C00007F0E6FE0C4A0D4B07F020FC02000B007F
:1008D0002000290006F0C0FC04000D00E1E7C0463E
:1008E0000000B03F0008494000003E407B14AE4786
:1008F000E17A743F00005940FA7E6ABC7493883FE5
:10090000F8B5104D280004F0A9FE80273F01A0266D
:10091000F60501223900300003F01BF9462005F0EE
:1009200038FF2B685C6AA4B200225A62280004F0E7
:10093000C9FE00223900300003F00BF92000FFF758
:100940008BFFF8BD2C1C0020F0B5C64600B584B066
:1009500007F09EFE0500009001914C0000222C4BF8
:1009600028006108FFF74CFD00284DD00F23984662
:1009700028498E68CF680E614F610C684D688C60A5
:10098000CD60009A019B0A604B6022002B0000980A
:10099000019907F07DFE02900391404608F030FA7D
:1009A000029A039B07F0B2FB0290039100221A4BBC
:1009B0000098019907F0AAFB02000B000298039926
:1009C00006F04AFC0290039122002B00200029002F
:1009D00006F042FC02000B000098019907F058FE57
:1009E00002000B003000390006F036FC0022002324
:1009F00007F08CFB02000B000298039906F02CFC18
:100A000004B080BCB846F0BD07239846B0E7C046A6
:100A100000000840281600200000144010B508000F
:100A2000190019280ED8182817D2142817D01728FB
:100A300006D192B20B48C82304F0CAFB01200BE098
:100A4000002009E0202806D1A0201021C00503F0D5
:100A500080F8012000E0002010BD0120FCE701200B
:100A6000FAE7C046781B002010B5292903D04A298F
:100A700005D0012010BD100005F08BFEF9E7A02085
:100A80001021C00503F065F8F3E7000010B504007D
:100A9000064B074A074900F057F9200001F068FAB1
:100AA0000021200001F06BFA10BDC046690A000861
:100AB0001D0A0008383F0108F0B5DE4657464E468D
:100AC0004546E0B583B007000E0091461D000C9B23
:100AD00098469223C35C9A461A0053425341DBB2B4
:100AE0009B464B199BB24A46013292B200924A464B
:100AF00000F074FD002831D0012416E09223524604
:100B0000FA540023009301334A463100380000F0C4
:100B1000DDFC0136B6B26400E4B2002C03D101233F
:100B20009C46E0440134013DADB2002D13D0434654
:100B30001B782342E2D19123FB5C002BE9D1923355
:100B40005A46FA540023009301334A4631003800D4
:100B500000F0BCFCDDE792235246FA5403B0F0BC2F
:100B6000BB46B246A946A046F0BDF0B5D6464F46B4
:100B70004646C0B582B081468A4614001F000AABC3
:100B80001E880B9DFB1D9BB2DB0898467B189BB211
:100B9000921992B20092220000F020FD00280CD1A0
:100BA0000DE000953B00220051464846FFF784FFC8
:100BB00045440134A4B2013EB6B2002EF1D102B0D8
:100BC000E0BCBA46B146A846F0BDF0B5C64600B591
:100BD00082B007000E001400984608AB1D884346FB
:100BE000CB189BB2521992B20092220000F0F6FC90
:100BF00000280CD10DE00022009243462200310073
:100C0000380000F063FC0134A4B2013DADB2002D08
:100C1000F1D102B080BCB846F0BDF0B5D6464F4623
:100C20004646C0B582B006000D0014001F000AAB96
:100C30001B889946C9198BB298464B46D21892B276
:100C4000009243462200290000F0C8FC002805D18C
:100C500002B0E0BCBA46B146A846F0BD00230093FE
:100C60003B0022002900300000F030FC4B46012BF5
:100C7000EED9023B9BB299460134A4B2002B08D1B5
:100C8000002300933B0022002900300000F01EFCEE
:100C9000DEE701239A4600934B46220029003000EC
:100CA00000F014FC4146013989B2534600934B468B
:100CB0002200300000F00AFC4C44A4B2E0E710B57A
:100CC00082B003681B7C446B5943C90089B2641825
:100CD0000094002101F036F902B010BDF0B5C6460F
:100CE00000B506003823C75C0133C55C03685B7C34
:100CF000984600242A0021003000FFF7E0FF01346D
:100D0000E4B20135EDB2A74201D9A845F2D880BCC2
:100D1000B846F0BD10B503681A7C3823C35C5A434B
:100D2000D200406B002108F03BF910BD10B5040063
:100D3000FFF7D4FF200001F029F910BD082303704C
:100D4000004870474016002070B584B004000D00C4
:100D50000A480B49009313000200200001F038F903
:100D60000F266E443000FFF7E9FF0100054B327893
:100D70000095200000F0F5FE04B070BD491D00088C
:100D80009D1E00080B160008405C70474218435C2B
:100D90001B025078C01880B270470020704770B5B1
:100DA00004000D0000212800FFF7EEFF2070012154
:100DB0002800FFF7E9FF607002212800FFF7E4FF39
:100DC000A07003212800FFF7DFFFE0700421280056
:100DD000FFF7DAFF207105212800FFF7D5FF6071CA
:100DE00006212800FFF7D0FFA07107212800FFF798
:100DF000CBFFE07108212800FFF7C6FF2072092110
:100E00002800FFF7C1FF60720A212800FFF7BCFF2E
:100E1000A0720B212800FFF7B7FFE0720C21280019
:100E2000FFF7B2FF20730D212800FFF7ADFF6073BD
:100E30000E212800FFF7A8FFA0730F212800FFF75D
:100E4000A3FFE07310212800FFF79EFF20741121FB
:100E50002800FFF79BFF608213212800FFF796FF11
:100E6000A08215212800FFF791FFE08270BD70B5C8
:100E70000400037B066835781D41E8B25A18D2B2E7
:100E8000072A0AD90820C01AC0B2731C23607378DD
:100E900083402B43D8B2083AD2B201235B428B4045
:100EA0009843227370BD70B505000400603401667C
:100EB000002323737833C15C2000FFF7D8FFA072B2
:100EC0007923E95C2000FFF7D2FFE0729223EB5C0C
:100ED000A3735A425341E37370BD10B50C00FFF782
:100EE000C6FF013CE4B20123A340C01A40B210BDCA
:100EF000012B09D0022B0AD0002B02D0401A80B25D
:100F000001E0801880B27047401880B2FBE7801A79
:100F100080B2F8E7012B09D0022B0AD0002B02D0B7
:100F2000801880B201E0401880B27047801A80B209
:100F3000FBE7401A80B2F8E7F0B5DE4657464E466A
:100F40004546E0B589B00792030060331A7A9046AF
:100F50005B7A0393894607001CE04B46059322E029
:100F60003B006033997B9223F9546B469B8A514630
:100F700000910699380000F0A9FAA94542D34346EA
:100F80001C1B4C44E3B29946039B0133DBB2039331
:100F9000002398463B0060339C7A4346E51AEDB245
:100FA000A945DAD305953B0060339888DA88049226
:100FB00041464EB26A460C2151568B461B7C9A46DE
:100FC0000A003100FFF7A6FF069053465A4631004B
:100FD0000498FFF78DFF0200079B002BC0D13B0058
:100FE00060335B7B002BC8D13B006033D97B9223FD
:100FF000F9546B469B8A514600910699380000F0DF
:1010000065FABAE759464A4642443B0060331A72D1
:10101000597209B0F0BCBB46B246A946A046F0BD25
:10102000F0B5DE4657464E464546E0B587B004006B
:1010300005006035FFF737FF6B23E35699467A23A7
:10104000E15C2800FFF749FF82467B23E15C280032
:10105000FFF743FF06007C23E15C2800FFF73DFF1C
:1010600003900A23EB569846002B6EDD4E44F6B2F1
:10107000764277B22E7CA88833003A005146FFF7BB
:1010800049FF05900490A880E88833003A00514653
:10109000FFF72EFF0200E880022E67D013D8002E43
:1010A0005BD0012E0DD1059B4946591A89B20131F9
:1010B00001339BB24646B6B2801980B289B2049120
:1010C00010E0059B0EE0032E0BD1059B4B449BB219
:1010D000424692B2821A92B20132013080B292B28A
:1010E00000E0059B00900499200000F077FA0028AA
:1010F0002BD02300603300221A725A727623E15CEF
:101100002800FFF7B4FE07007723E15C2800FFF713
:10111000AEFE0600002239002000FFF70DFF01227D
:1011200031002000FFF708FF01212800FFF79FFE94
:101130000028EFD1230060335B7A5BB24B45DDDBE7
:10114000230060339A7B9223E254039807B0F0BCEB
:10115000BB46B246A946A046F0BD43469BB20599A0
:101160008C4663449BB2484480B2BBE7434699B285
:10117000059B591A89B2013101339BB24A46821A42
:1011800092B20132013080B292B289B20491A9E7E1
:1011900070B50D00846D1734FF2914D8602903D968
:1011A0008823C35AE41806E0402904D98623C35A89
:1011B000E41800E0E4186378002B20D02278AA42DB
:1011C000F8D1A01C1CE08A23C35AE4182600002191
:1011D0003000FFF7DBFD241802213000FFF7D6FDB9
:1011E00004368542F3D801E0A378E418227812028D
:1011F0006378134305D09D42F6D1E01C00E0002047
:1012000070BD0020FCE710B5040064202152662167
:10121000625219002000FFF7BBFF011E04D020001E
:10122000FFF7FEFE80B210BD0020FCE770B50400A1
:10123000FFF7AEFF011E16D02000FFF734FE250099
:1012400060357A23E15C2800FFF747FE9023E054E5
:10125000153BE15C2800FFF740FE7C23E15C2800A1
:10126000FFF73BFE70BD0020FCE70000F0B5C6466E
:1012700000B504000D006A230022C25400F0EEFC09
:1012800040235B4298460027002601E0F619B6B2DB
:101290006368297820009847144A90420FD001359E
:1012A000134A9042F4D001002000FFF7BFFF87B23D
:1012B00043464033EAD19023E3569846E6E76A2353
:1012C000E356002B0ED0F71BBFB29BB2DB199BB2CB
:1012D0009022A656B6B2F618B6B24346002B01DDF0
:1012E0004644B6B2300080BCB846F0BDFFFF0000F7
:1012F000FEFF0000F0B5C64600B504000E00170062
:1013000098467023C55C022D1DD008D8002D0DD045
:10131000012D0FD1C36D9847361AB6B20AE0032DDE
:1013200008D1C36D98473618B6B203E0C36D98472D
:101330003F18BFB243463A0031002000FFF763FF79
:1013400080BCB846F0BDC36D98473F1ABFB2F1E705
:10135000F0B5C64600B504000F0016001D0000F0F1
:101360007DFC0023984609E0032B04D1361AB6B25F
:1013700001E03F18BFB2404483B2984663682978C1
:10138000200098470F49884218D001350E498842FD
:10139000F4D00300320039002000FFF7ABFF7023C8
:1013A000E35C022B07D0DFD8002BE2D0012BE2D187
:1013B0003618B6B2DFE73F1ABFB2DCE7404680BC62
:1013C000B846F0BDFFFF0000FEFF000010B5024C64
:1013D0004460FFF7BDFF10BDBD1B000830B5836D35
:1013E000002B1DD08123C2560D33C2540C3BC35673
:1013F0008F2143540239415C002911D0012910D0BA
:101400007E214156802404570D19AA4204DAC9B23C
:10141000E2B289188E228154A34201DD8F23C45485
:1014200030BD823141568A4201DA8E2281548422B3
:1014300082569342F4DD8F23C254F1E7014BC3651A
:101440007047C0469B0D000810B50400836D8B42A9
:1014500006D081657430FFF7A2FC2000FFF7BEFFC5
:1014600010BD000010B5024B4360FFF7FFFE10BD3A
:10147000A51B000830B505880C886419A4B2A542E4
:1014800003D99D4210D25C1EA4B29D420ED294425A
:101490000ED9954200D32A009C4200D82300028036
:1014A0009B1A0B80012030BD1500EEE70020FAE703
:1014B0000020F8E730B583B006AC2578C48F121B46
:1014C00092B2C46A0095A04703B030BD70B584B035
:1014D000040008A805780E206844018003A90A804A
:1014E0000A226A4413808C23E35C002B30D01388DB
:1014F000002B2DD0012B03D9022D2BD0032D30D062
:1015000001231E002E402B4233D14B33E25A03AB52
:101510001B889A421CD84E22A25A934218D24A23C0
:10152000E35A4822A25A0A2169440E206844FFF770
:10153000A1FF00280CD0236B9D680A236B441B88F5
:1015400003AA12880E216944098800962000A84742
:1015500004B070BD0288D31A9BB2038001330380AC
:10156000CEE703A90A88D31A9BB20B8001330B8004
:10157000C6E74823E25A3A3B6B441B889A42E7D8B5
:101580004A22A25A9342E3D24E23E35A4C22A25A51
:101590000A21694403A8FFF76DFF0028CBD1D7E7E4
:1015A00010B582B000240094FFF790FF02B010BD88
:1015B0008A4205D2834209D89A4209D9012006E01D
:1015C000834207D99A4207D9012000E001207047E1
:1015D0000020FCE70020FAE70020F8E770B50600DD
:1015E0000C001D0004AB1B884E21415A4C20305A80
:1015F000FFF7DEFF002807D04A23F15A023BF05ADA
:101600002B002200FFF7D4FF70BDF0B50E0005A936
:1016100009788C46072717400124BC40E4B2922188
:10162000415C01291AD90025012919D007218A43D3
:101630000168097C4A4392B2416B9219891862464B
:10164000002A17D10A782A43D2B20A7062400A707F
:101650000131013B9BB2002BF4D1F0BD2500E3E743
:101660000024E3E7012519E06D00EDB26400E4B267
:10167000002BF2D00A782A43D2B20A7062400A7074
:101680007A1C072637001740013B9BB21642EBD16C
:10169000428F89189222825C012AE3D9012AE7D07D
:1016A0000124E5E710B50823C15E0A22835E994252
:1016B00016DA82888389D21892B28281C388C4895B
:1016C0001B199CB21BB2C381002B05DD0388D21805
:1016D00082814388E41AC48101310181012010BD57
:1016E0000020FCE7F8B5CE46474680B5040008A8C0
:1016F0000025405F80469BB299468EB29F1B38B250
:101700004546AD1AABB29C462DB265804346638117
:101710002281A1813F0411D4012323800023E3818E
:1017200006002900FEF756FDA08029003000FEF7D4
:1017300037FEE180C0BCB946B046F8BD0122524236
:1017400022804B46F61A36B2012362469B1AE38189
:10175000E7E70131C9B2037E8B4200D800210800BF
:1017600070470139C9B2037E8B4201D8013BD9B21F
:101770000800704770B504000E00150053009B1858
:10178000DB00C3183033197805E06B005B19DB0010
:10179000E318303318706B005B19DB00E318DB6A69
:1017A0002000984701008300E31802229B5EB342A9
:1017B000EBD070BDF8B50400264B4364264BC362E2
:1017C0000223C15E30230022C2540D002F3B01E0F2
:1017D0000133DBB2227E9A420CD99A00A218022071
:1017E000125E8A4200DD1100AA42F1DA3020235451
:1017F0001500EDE76183491B09B26183002901D11E
:101800000020F8BD3027E35D4826A35501222900BA
:101810002000FFF7AFFF002229002000FFF7AAFFFA
:1018200001236376E35D9B001A5FA35D9B001B5F52
:101830009A4203D0002363760120E2E71A22A35ED6
:10184000013B1BB26383002B01D00120D9E70020AC
:10185000D7E7C0465317000863170008F0B583B0F8
:1018600004000B0005001C354900C918C9006D189B
:10187000297D8B00C2180226965F1F5E2B69984750
:101880008300E2180221525E1B5F2875009232002D
:1018900039002800FFF726FF03B0F0BD00230376D0
:1018A000704710B5037E052B05D89C002152041902
:1018B00062800133037610BD70B502000800282154
:1018C000535E4021545E3C21525E002A17DB4621C4
:1018D000415A8A4213DAA34214DA002C0FDB442166
:1018E000415A0D008B420ADA002B09DBA54200DCCD
:1018F0000CB299B2631A9BB292B2FFF751FE70BD5F
:101900000023F3E7002BFADB4421415A0D008C42FF
:10191000F5DA002C09DB9D4200DC0BB2A1B25B1AA8
:101920009BB292B2FFF73CFEE9E70023F3E770B504
:1019300004000E001A23C55E0021FFF78FFF01216E
:101940002000FFF78BFF637E002B21D020001C308E
:10195000FFF7A8FE20003430FFF7A4FE18E00021B6
:101960002000FFF77BFF20001C30FFF79BFE0028C4
:10197000F5D003E001212000FFF770FF2000343094
:10198000FFF790FE0028F5D0013D2DB2002D04DDBB
:1019900031002000FFF790FFE5E770BD70B504004F
:1019A0000D00FFF707FF002800D170BD29002000BF
:1019B000FFF7BDFFF9E7000010B50248FFF76EFF23
:1019C00010BDC046401A002010B50248FFF769FF5D
:1019D00010BDC046401A002010B50100024B18008F
:1019E000FFF7DCFF10BDC046401A0020F0B5D64618
:1019F0004F464646C0B504000E0017001D0008AB58
:101A000000229B5E9A4609AB00229B5E98460AAB79
:101A100000229B5E9946FFF7CFFF3A00310020007D
:101A2000FFF7D2FF524629002000FFF7CDFF4A46BC
:101A300041462000FFF7C8FF2000FFF7CDFFE0BCC4
:101A4000BA46B146A846F0BD70B501683823C45CFB
:101A50002300E20082870A7CD20042873922855C1B
:101A60002E00EA00C28764194D7CAC4201DDAD1B3B
:101A7000ABB2DB009BB24024025302340253D218B3
:101A800002538A8A4423C252CA8A0233C25270BDA8
:101A900010B5FFF7D9FF10BD10B582B00400522376
:101AA000C35A5422825A5021415A5620205A00903B
:101AB0002000FFF793FD002804D18C230022E2547C
:101AC00002B010BD8C230122E254443BE25A083399
:101AD000E35A9A4201D24822A3524A23E25A0833D7
:101AE000E35A9A4201D94A22A3524C23E25A0833BC
:101AF000E35A9A4201D24C22A3524E23E25A0833AF
:101B0000E35A9A42DCD94E22A352D9E710B54823B2
:101B10000022C252043BC25A0633C2520A3BC25A86
:101B20000C33C2520A3BC25A0C33C252FFF7B4FF05
:101B300010BD10B582B004AC24780094FFF7BAFC55
:101B400002B010BD10B500235022835204328352DC
:101B5000013B023A835204328352036B5B6898471D
:101B600010BD70B5040004980025A565E3626163AB
:101B70003823E2540133E5543433E5542433E55437
:101B8000903B9222A3540132A354206303682000A7
:101B900098472000FFF7D6FF2000FFF74FFC702387
:101BA000E55470BD002903D00A2903D088B27047DC
:101BB0000148FCE70048FAE7FFFF000010B5040009
:101BC000002940D00A2940D02623C35C002B2BD10A
:101BD000FB2909D8F7290FD8EF2913D8DF2917D8FF
:101BE000BF291BD888B22DE026330522C254253BDD
:101BF0000B402384174825E026230422C254233BAC
:101C00000B40F6E726230322C2541F3B0B40F0E7AC
:101C100026230222C254173B0B40EAE72623012267
:101C2000C254073B0B40E4E7013BDAB22623C2541F
:101C3000038C9B0198B220843F230B4018432084DF
:101C4000002A04D110BD0448FCE70348FAE7014824
:101C5000F8E7C046FEFF0000FFFF00002623002239
:101C6000C254704710B50A00046900232021A04720
:101C700010BD10B5130004690A001721A04710BD5C
:101C800000B583B06B46DA1D11700121FFF7F1FF3B
:101C900003B000BD10B50A00C46800231521A04799
:101CA00010BD10B50A00C46800231621A04710BD5E
:101CB00010B51300C4680A001721A04710BD10B565
:101CC000C468002300221821A04710BD10B5C468C5
:101CD000002300221921A04710BD70B582B0060074
:101CE0000C0016E015290CD202B070BDFE29FBD104
:101CF0002A786B46DA712921300000F04EF902345F
:101D000007E02A786B46DA71F56800233000A847AF
:101D100002342178651C1929E8D818290DD2162912
:101D2000E0D91729E0D12B786A46073213700121D8
:101D30003000FFF7BDFF0234EBE7F4680023002218
:101D40003000A0472C00E4E7F0B583B006000F0098
:101D5000150001930C00143CE3B2052B20D89C0025
:101D6000104B1B599F460021FFF77CFF29003000D4
:101D7000FFF786FF012011E00021FFF773FF290024
:101D80003000FFF77DFF012008E00121FFF76AFF27
:101D90003469019B2A0039003000A04703B0F0BD30
:101DA0000020FBE7443F0108F8B5050014001E00C1
:101DB0000E295BD010D80B2943D00D290AD1002A57
:101DC0004BD13249FFF789FF2B689A7C2223EA54D2
:101DD000012035E0002033E00F2930D1FFF76FFFFD
:101DE0007379DB00DBB22222AF5CFF18FFB2402127
:101DF0002800FFF74FFF390910231943C9B2280003
:101E0000FFF748FF0F2139402800FFF74AFFB37959
:101E1000502149421943C9B22800FFF742FF3179E6
:101E20003268C900C9B22800FFF742FF013CE4B2A2
:101E3000002CF4D12800FFF749FF012000E000202A
:101E4000F8BD002A04D11249FFF747FF0120F7E748
:101E50001049FFF742FF0120F2E70F49FFF73DFF6E
:101E60002B68DA7C2223EA540120E9E7FFF727FFF9
:101E700081212800FFF70EFF21002800FFF711FF46
:101E80002800FFF723FF0120DAE7C0465C3F010886
:101E9000A43F0108AC3F0108643F010870B505008C
:101EA0000C00FFF781FF002812D1092C0AD00A2C60
:101EB0000FD1280000F017F806492800FFF70DFFA2
:101EC000012006E00449280000F008F8012000E0A5
:101ED000012070BD6C3F0108B43F010801608A7C9D
:101EE0002223C254704770B50400456900230022C4
:101EF0002821A847E5680023002214212000A847D4
:101F000001224B21200000F048F823681A7929218A
:101F1000200000F042F800224B21200000F03DF8A4
:101F200023681A792921200000F037F801224B217B
:101F3000200000F032F823685A792921200000F0AF
:101F40002CF870BD10B582B06C466171A27123711E
:101F5000049B009384686B4601220F21A04702B0C6
:101F600010BD10B58468002300220921A04710BDD0
:101F700010B58468002300220A21A04710BD10B5C7
:101F80000A00846800230B21A04710BD10B58468A7
:101F9000002300221021A04710BD10B54469002382
:101FA000A04710BD0020704700230360074A8260ED
:101FB000C2600261426123228354033283548361ED
:101FC000FF33023A8354043283547047A51F00083C
:101FD000F8B504000F0016001D00FFF7E5FFA7602D
:101FE000E6602561069B63612000FFF7BAFFF8BD3C
:101FF00000B585B00C22002101A806F0D1FF1A48D7
:102000001A4B03608023DB05436000238360C360B9
:102010008022120602610422426103764376033A6B
:102020008276C261436283622B32835480225201E2
:10203000026343633C228354C36401F01DF900280A
:102040000BD10B4B019301230293074801A901F027
:1020500099FA002804D105B000BD00F027FDF0E793
:1020600000F024FDF7E7C0468C1A00200024014050
:102070000002002410B58EB004001422002109A82B
:1020800006F08EFF1C22002102A806F089FF2268BC
:10209000154B9A4201D00EB010BD8023DB01029394
:1020A00002A802F019FE00281BD1104B1A6C8021E7
:1020B00049030A431A641A6C0A400092009A596B49
:1020C0000222114359635B6B13400193019B0992F8
:1020D00003230A9300230B9309A9054801F078FC18
:1020E000D9E700F0E3FCE0E70024014000100240E3
:1020F00000040050034B1A68126B1A60024B022254
:102100001A7070470400002000000020F0B5C64699
:1021100000B5AEB0A02001220821C00501F019FDD4
:1021200009A8FEF7B3FC00239846082500260127DE
:1021300052E0CC4B1A88CC4904A806F0D9FFCB4911
:1021400009A8FFF781F904AB1022002109A8FFF7C5
:102150003DF9C74B1868596806F01CFE0200C549D6
:1021600004A806F0C5FF04AB1022642109A8FFF7FC
:102170002DF9C14B1A88C14904A806F0B9FFC0491E
:1021800009A8FFF761F904AB3022122109A8FFF773
:102190001DF90824009470233822082109A8FEF7AD
:1021A0003CFDB84B00229B5ED800C01A000106F02F
:1021B00027FE0022B44B05F0AFFB06F0EBFD83B227
:1021C00000943822082109A8FEF7FFFC09A8FEF7B1
:1021D000ADFD642004F0DDFA09A8FEF79BFDAB4BD2
:1021E0001A78062A00D938E19300A94AD3589F46A5
:1021F000A84B1B78002B07D001F02CF84346C01ADF
:10220000FA235B01984226D3D0237343A24A9B183A
:1022100001931A23009326331322202109A8FEF7E5
:10222000A4FC002F1BD00136F6B2092E01D0002EDF
:1022300002D17B425F41FFB272427241954B1A70EC
:1022400009A8FEF773FD01F005F883B298460A204D
:1022500004F09FFAC0E7012004F09BFABCE7013EBE
:10226000F6B2E2E70024022C10D8E3018B4A9B1857
:1022700028216143083189B20193202300930A2267
:1022800009A8FEF772FC0134E4B2ECE7844C216843
:10229000083104A806F04CFF744909A8FFF7D4F8E8
:1022A00004A909A8FFF7DEF88023181AC10F09183E
:1022B000491089B204AB382209A8FFF787F82368D0
:1022C0001B6828225343DBB20833DBB29D4201D2A4
:1022D0000435EDB29D4201D9043DEDB2A9B22023EF
:1022E00000930A2209A8FEF798FC09A8FEF71EFD34
:1022F000112004F04EFA6FE75C4909A8FFF7A4F833
:10230000684C00E0E46A002C2AD02100083104A8BF
:1023100006F00EFF23680133DA00D21A520092B29F
:1023200004AB102109A8FFF751F823685C4A126832
:1023300012689342E6D10133DA00D31A5B009BB2F4
:102340001A00083A191F12B209B20291062101912E
:102350001BB200930323033909A8FFF747FBD1E71A
:1023600009A8FEF7E3FC112004F013FA34E73F4913
:1023700009A8FFF769F84C4C00E0E46A002C2AD069
:102380002100083104A806F0D3FE23680133DA00E7
:10239000D21A520092B204AB102109A8FFF716F826
:1023A00023683F4A126812689342E6D10133DA008B
:1023B000D31A5B009BB21A00083A191F12B209B275
:1023C0000291062101911BB200930323033909A84E
:1023D000FFF70CFBD1E709A8FEF7A8FC112004F0D9
:1023E000D8F9F9E6214909A8FFF72EF82F4C00E0AB
:1023F000E46A002C2AD02100083104A806F098FED7
:1024000023680133DA00D21A520092B204AB1021D1
:1024100009A8FEF7DBFF2368214A1268126893427D
:10242000E6D10133DA00D31A5B009BB21A00083AF6
:10243000191F12B209B20291062101911BB2009339
:102440000323033909A8FFF7D1FAD1E709A8FEF75A
:102450006DFC112004F09DF9BEE6012004F099F90D
:10246000BAE6C046181B0020CC3F010880140108C2
:10247000101B0020DC3F0108001B0020E83F010882
:10248000581E01080C1B002000408F400000002057
:10249000F03F0108FD1A00200C0000202C0800204D
:1024A00004000020540A0020340B0020A40B00205C
:1024B00010B511E00B4C0021200003F03FFC64201C
:1024C00004F067F90021200003F0D2FC064B002243
:1024D0001A70012004F05DF9034B1B78002BE9D141
:1024E000F7E7C046781C0020F81A002010B507E076
:1024F000144806F0A9FD0EE0FA20800004F049F926
:10250000FEF7FEF902000B000F490A604B600F490D
:1025100009780329ECD80E4B1B78002BECD10D4B1E
:1025200000221A700C4C21880C4806F08DFD23887F
:10253000C82BE1D9064B01221A70094B02321A70DE
:10254000DAE7C0460C400108101B002008000020FC
:10255000F91A0020FD1A0020FA1A00203440010860
:102560000000002030B583B0FDF7F4FF002845D00F
:102570006B46DD1DC823012229000020FEF752F81A
:102580006B469C1DC823012221001000FEF74AF86B
:102590002A781202237813431B4A1380FA2252002E
:1025A000934201D9184B1A80174B188806F028FC63
:1025B000164A174B06F06CF8164A174B05F0ACF9A3
:1025C000164B1860596019E00F4B1B886A46D11DE5
:1025D0001A0A0A706A46941D9371C82301220020CA
:1025E000FDF7C8FFC823012221000120FDF7C2FF2B
:1025F0000B4B00221A700B4804F0CBF8084B1B78E9
:10260000002BE1D1F7E7C046181B0020AE47E17A66
:10261000148E3D40DBF97E6ABCA44A40201B00209A
:10262000FE1A002010270000F0B591B0624801F0BA
:102630005FF934E0614B00221A80614B1B78002B5C
:1026400044D05F4B1A705F4B01321A705E4B1A70A8
:102650003CE05E4822002B0006F0F6FC92E05C4B6A
:10266000FA2292001A805A4B00229B5E002B00DA5D
:102670009DE0584B1B78032B05D9554B0021595E23
:10268000554806F0E1FC55480368514A0021525E66
:102690009A63042103F052FB322004F07AF84F4889
:1026A000042103F0E5FB052004F073F8424864219F
:1026B00000F004FF8021A0204900C00501F042FA8B
:1026C0000028B7D13D4A1388013313800C9E0D9F1B
:1026D0000E960F970A9C0B9D0C940D95089A099BDA
:1026E000009201930A920B930699079A0291039222
:1026F00008910992304800F041FF06F0B1FB00223A
:10270000374B05F009F90022364B05F0FFFC00229B
:10271000354B05F001F90022344B05F0F7FC04902D
:1027200005910690079122002B003000390004F03B
:1027300093FD02000B000098019904F08DFD02004A
:102740000B000298039904F087FD02000B00049827
:10275000059904F081FD0022254B05F0DDF8040009
:102760000D00244A244B05F0D1FC244A244B04F0EC
:1027700073FD04F053FD234B1880164B1B78032B7D
:1027800000D966E7204B1868596822002B00FEF735
:10279000DBF806F0FFFA80B20D4B1A88801800B201
:1027A0001880FA239B00984200DC5CE757E7084B4F
:1027B00000221A805DE7C0468C1A0020FA1A002019
:1027C000F91A0020F81A00200000002044400108F7
:1027D0000C1B00200800002068400108C41C0020D9
:1027E00000FEAF400000044000406F4000408F40BA
:1027F00000001440DBF97E6ABCA44A40AE47E17A8F
:10280000148E3D40001B0020201B002070B59AB0A4
:1028100015A8214C0300220062CA62C322CA22C347
:10282000002103F09CFF1D4B186010A823001433F7
:10283000020062CB62C222CB22C2002103F08FFFD2
:10284000174B18600BA823002833020062CB62C22A
:1028500022CB22C2002103F082FF124B186006A88F
:1028600023003C33020062CB62C222CB22C2002191
:1028700003F075FF0C4B186001A8230050330200D1
:1028800032CB32C212CB12C2002103F068FF074BD9
:1028900018601AB070BDC04600140108041B002067
:1028A000F01A0020281B0020F41A0020081B00202A
:1028B000F0B5C64600B58AB01422002105A806F07E
:1028C0006FFB374B5A6B20273A435A635A6B3A4097
:1028D0000192019A596B042211435963596B0A40C2
:1028E0000292029A5A6B01252A435A635A6B2A4074
:1028F0000392039A5A6B022188460A435A635B6B20
:102900000B400493049BA026F605002225493000C5
:1029100001F01FF91A2305930695002407940894E3
:1029200005A9300001F054F880235B00059306945C
:10293000079405A9300001F04BF880231B01059393
:1029400006950795089405A9300001F041F8082381
:10295000059306940794144C05A9200001F038F85B
:102960001023059384239B030693079505A9200054
:1029700001F02EF8059788235B03069343460793DF
:1029800005A9200001F024F800220321072000F00F
:10299000E3FF072001F010F80AB080BCB846F0BD94
:1029A000001002401A0800000004005010B514483E
:1029B000144B0360144B4360002383600122C26008
:1029C000036143618361C361036201F08DFA0028F2
:1029D0000CD10B48002101F057FD002809D108480F
:1029E000002101F07DFD002806D110BD00F05EF849
:1029F000EFE700F05BF8F2E700F058F8F5E7C046C3
:102A00002C1B002000540040BC7D701010B58EB00F
:102A100004001422002109A806F0C2FA1C22002199
:102A200002A806F0BDFA2268174B9A4201D00EB0F8
:102A300010BD2023029302A802F04EF9002820D1F5
:102A4000124C626B02231A436263626B1340009361
:102A5000009BC0230993AE3B0A93113B0B930023C9
:102A60000C9306330D9309A9094800F0B1FFE36BFD
:102A7000802292031343E363E36B13400193019BB2
:102A8000D5E700F013F8DBE70054004000100240E7
:102A90000004005010B50268034B9A4200D010BDEC
:102AA00000F0CCFBFBE7C0460048014072B6FEE7F1
:102AB00000B593B03422002105A806F071FA102267
:102AC000002101A806F06CFA8020800001F032FDA0
:102AD0000123059380235B02069302230C930133A9
:102AE0000D9300230E9310330F9380239B021093BA
:102AF0008023DB05119305A801F046FD00280ED1C7
:102B000007230193053B02930023039304930221BF
:102B100001A801F0E7FF002803D113B000BDFFF7C3
:102B2000C5FFFFF7C3FF10B500F074FBFFF7C0FF50
:102B3000FFF7BEFEFFF75CFAFFF738FF00F00EF874
:102B400000F030F900F008FA00F04CFA00F0ACFAAE
:102B5000FFF75CFE03F0FEFDFEE7000010B5114834
:102B6000114B036082235B00436000238360E022FB
:102B7000D200C26003614361802292008261F13A17
:102B8000FF3AC261036243628362093AC26203632D
:102B90000833436302F09AFA002800D110BDFFF712
:102BA00085FFFBE7781B00200030014010B588B09E
:102BB00004001422002103A806F0F2F92268104B49
:102BC0009A4201D008B010BD0E4B1A6C8021490109
:102BD0000A431A641A6C0A400192019A596B012245
:102BE000114359635B6B1A400292029B6423039367
:102BF000623B0493A02003A9C00500F0E9FEE1E7D1
:102C0000003001400010024000B583B00E4B196C3B
:102C1000012211431964196C0A400092009ADA6B80
:102C2000802149050A43DA63DB6B0B400193019B6A
:102C3000022000220321404200F08EFEC020C0008E
:102C400000F00EFB03B000BD0010024000B587B0DD
:102C500001000022162000F07FFE162000F0ACFEDE
:102C6000134B1A6C8021C9020A431A641B6C0B4077
:102C70000093009B01A902A802F014F801F0FEFFE6
:102C80000C49FDF71DFA431E0B480C4A02600C4A22
:102C9000C260436000230361836002F06BFE002882
:102CA00002D0012007B000BD034802F021FDF9E782
:102CB0000010024040420F00DC1B00200048014091
:102CC000E7030000FEE7FEE710B5102000F048FF24
:102CD000202000F045FF10BD10B5024802F044FD71
:102CE00010BDC046DC1B00200120704710B506F067
:102CF000DDF8162303600120404210BD10B501210C
:102D00004942FFF7F3FFFEE770B50C0016000025FF
:102D100004E000E000BF207001350134B542F8DB6B
:102D2000300070BD70B51600002405E04D1C087819
:102D300000F036FA01342900B442F7DB300070BDF0
:102D400001204042704780239B014B600020704768
:102D5000012070470020704710B503000C4A0D4950
:102D6000521A0D490968002907D00B490868C31891
:102D7000934206D8084A136010BD07490748086007
:102D8000F3E706F093F80C23036001204042F3E7D9
:102D90000090002000040000281C0020285B002078
:102DA0007047000000B589B01022002104A806F089
:102DB000F7F80C22002101A806F0F2F81848194B88
:102DC0000360002343608360174AC260036143616C
:102DD000836102F0CFFD002818D180239B0104936A
:102DE00000230593069307930D4804A902F014FFEE
:102DF00000280ED10023019302930393084801A9F0
:102E000003F096F8002807D109B000BDFFF74EFE89
:102E1000E3E7FFF74BFEEDE7FFF748FEF4E7C046B8
:102E20002C1C0020002C0140FFFF000010B588B0D2
:102E300004001422002103A806F0B2F82268114B06
:102E40009A4201D008B010BD0F4B1A6C80210901C5
:102E50000A431A641A6C0A400192019A596B0122C2
:102E6000114359635B6B1A400292029B80235B0102
:102E70000393022304930793A02003A9C00500F045
:102E8000A7FDDFE7002C01400010024082B003687C
:102E90000E4A934204D00E4A93420BD002B07047C0
:102EA0000C4AD16B02231943D163D26B13400093B8
:102EB000009BF3E7074B1A6C802149020A431A640E
:102EC0001B6C0B400193019BE8E7C04600040040E7
:102ED000004001400010024010B588B004001422E8
:102EE000002103A806F05CF82368174A934204D037
:102EF000164A934215D008B010BD154A516B0423F1
:102F000019435163526B13400193019B8023039338
:102F10007E3B0493013B079303A90E4800F058FD44
:102F2000E9E70B4A516B042319435163526B134079
:102F30000293029B022303930493079303A905487A
:102F400000F046FDD7E7C0460004004000400140C5
:102F5000001002400008005000B58BB00C22002188
:102F600007A806F01DF81C220021684606F018F894
:102F700019481A4B03607F23436000238360184A7B
:102F8000C2600361836102F025FD00281BD100238C
:102F900007930993104807A902F0CAFF002815D12A
:102FA00060230093563B01930023029304930A4845
:102FB0000422694602F082FD00280AD10648FFF784
:102FC0008BFF0BB000BDFFF771FDE0E7FFF76EFD73
:102FD000E6E7FFF76BFDF1E7C41C002000040040AA
:102FE000E703000000B599B00C22002115A805F0F8
:102FF000D7FF1C2200210EA805F0D2FF34220021A9
:1030000001A805F0CDFF2648264B03607F234360CF
:1030100000238360F422FF32C26003614361836155
:1030200002F0D8FC00282FD10023159317931C48D9
:1030300015A902F07DFF002829D160230E93993352
:103040000F93002310931193129313931493144826
:1030500000220EA902F032FD00281BD100230193AB
:10306000029303930493059380229201069207939F
:103070000D930B4801A902F097FF00280DD10848D5
:10308000FFF72AFF19B000BDFFF710FDCCE7FFF7EF
:103090000DFDD2E7FFF70AFDE0E7FFF707FDEEE7DA
:1030A000781C00200040014010B51948194B0360FE
:1030B000E1235B02436000238360C36003610C2251
:1030C00042618361C36103624362836203F06EFA0B
:1030D000002811D10E48002103F0E8FA00280ED193
:1030E0000B48002103F008FB00280BD1084803F02F
:1030F000BDFA002809D110BDFFF7D8FCEAE7FFF7B9
:10310000D5FCEDE7FFF7D2FCF0E7FFF7CFFCF2E7E5
:10311000101D00200038014010B58EB004001422AC
:10312000002109A805F03CFF1C22002102A805F09F
:1031300037FF2268174B9A4201D00EB010BD012311
:10314000029302A801F0C8FD00281FD1124B1A6C8F
:103150008021C9010A431A641A6C0A400092009A3D
:10316000596B0422114359635B6B1A400192019B16
:10317000302309932E3B0A9300230B930C930133C6
:103180000D9309A9054800F023FCD6E7FFF78EFC54
:10319000DCE7C04600380140001002400008005043
:1031A00000B583B001900448044B012201A903F04B
:1031B0003DF9019803B000BD101D0020FFFF000085
:1031C0000D488546FFF7ECFD0C480D490D4A0023DC
:1031D00002E0D458C4500433C4188C42F9D30A4ACC
:1031E0000A4C002301E013600432A242FBD305F035
:1031F00063FEFFF798FCFEE700900020000000202F
:1032000004160020F44B010808160020285B00205B
:10321000FEE7000010B5084A116880235B000B43ED
:1032200013600320FFF712FD041E02D001242000CA
:1032300010BDFFF7E9FCFAE700200240034B1B78C2
:10324000034A11685B1813607047C046500C002099
:10325000A01D0020014B18687047C046A01D00202B
:10326000034A136803490B40034313607047C04689
:1032700000000140FFF9FFFF30B583B004000023D8
:103280000193002800D106E1836D002B13D0236841
:103290009A68D2001CD49968804A11408022520555
:1032A0000A439A607E4B18687E49FCF709FF01309B
:1032B0004000019009E0FEF7DDFE0023E3655422A3
:1032C000A354E4E7019B013B0193019B002BF9D13F
:1032D00023689A68D20000D59DE0A26D10210A43B0
:1032E000A265E26D0F390A43E26501209A68042164
:1032F0000D001540114200D00125A26DD20600D567
:10330000C2E0002D00D0BFE0A26D67490A4006313F
:10331000FF310A43A2659A68D20752D4A268217E7F
:1033200089030A43617EC9030A43A57E69030A43F0
:10333000216B002901D0802149010A43E1680A4339
:103340002169002969DB802189030A432C21615C02
:1033500049000A432021615C012961D0616A00298A
:1033600005D0E0256D002940A56A29430A43D968A4
:103370004E4D29400A43DA6063689B0F9B07E26C5D
:103380001A433C21615C012959D021680B69484DE1
:103390002B4013430B616368C0221206934210D086
:1033A0008022D20593420CD080221206934208D08C
:1033B00040490A68404D2A40F025AD032B40134395
:1033C0000B602168636B4A690725AA4313434B616D
:1033D0002168A26B4B696935AB43120113434B6102
:1033E0002369002B35D12268916A103B0B4393620D
:1033F00023685A6907231340626B9A423BD0A36D3E
:1034000012229343023A1343A365E36D0F3A134329
:10341000E36501203DE0002068E74900490894E7A2
:10342000002D03D1802149020A4397E7A16D202591
:103430002943A165E16D1F3D2943E1658EE7216CBC
:103440000B43616C0B43A16C0B43134301221A43E2
:103450009BE7802292039342CAD121688B6AE36979
:10346000013B9B001C221A4010235B429340226EBA
:1034700013438B62BCE70023E365A36D03229343F0
:10348000023A1343A36504E0A36D10221343A3651E
:10349000012003B030BD0120FBE7C046E8FFFF6F0D
:1034A0004C0C0020400D0300FDFEFFFF0102FEFF5B
:1034B00002FCFF1F08270140FFFFC3FFF8B504000F
:1034C0000D004669082E04D00368DB68DB071DD4B5
:1034D0000426FFF7BFFE070023681A6816421BD1B7
:1034E0006B1CF9D0FFF7B6FEC01BA84201D8002D17
:1034F000F2D123681B681E42EED1A36D0422134350
:10350000A36554230022E254032029E0836D202286
:1035100013438365012023E0A16D802292000A43BA
:10352000A265D968C0221201114213D1A27E002ADD
:1035300010D11A6812070DD59A68520711D45A682B
:103540000C218A435A60A36D0B4A13400432FF32A8
:103550001343A365207E00280CD123680C221A6037
:10356000F8BDA36D20221343A365E36D1F3A1343F7
:10357000E365EFE70020F3E7FEFEFFFF0368186C4A
:1035800070470000F0B583B0040000230193056983
:103590005433C35C012B00D12FE154230122C254C8
:1035A00000688368033216001E401A4209D0A36DDA
:1035B0001C321343A365012054230022E25403B0BC
:1035C000F0BD4B68022B00D1D5E080221206954257
:1035D00025D08B4A954222D0226E1F271F400F25EF
:1035E000BD40AA430B685D032FD19B0E1F261E40D2
:1035F000BE40324322664D68AB080133E269934214
:1036000013D80E68826A1F231D40103B1F00AF4075
:10361000BA43B60E3340AB401343836205E00B68F8
:10362000826A5B035B0B1343836220680B688D68BF
:1036300042691B029A432B40724D2B401343436156
:103640000B68002B4FDB0020B6E7DD07D0D49D07C9
:1036500027D45D0727D41D0727D4DD0627D49D0670
:1036600027D45D0627D41D0627D4DD0527D49D0564
:1036700027D45D0527D41D0527D4DD0427D49D0458
:1036800027D45D0427D41D0427D4DD0327D49D034C
:1036900027D48025ED021E002E402B42A8D01226F2
:1036A000A6E70126A4E70226A2E70326A0E7042650
:1036B0009EE705269CE706269AE7072698E7082650
:1036C00096E7092694E70A2692E70B2690E70C2650
:1036D0008EE70D268CE70E268AE70F2688E7102650
:1036E00086E7112684E7484A1168E02252040A401E
:1036F0004648834207D04648834222D04548834209
:103700002CD0002058E70802F5D480231B04134373
:103710003D490A684048024013430B603F4B18681C
:103720003F49FCF7CDFC013043001B189B0001937F
:1037300002E0019B013B0193019B002BF9D100208A
:103740003AE7C801DAD480235B0413432E490A68A0
:103750003148024013430B6000202DE749024AD450
:103760008023DB03134328490A682B480240134394
:103770000B60002020E780231B069D4202D0204BD7
:103780009D4205D10B68826A5B035B0B9A438262A0
:103790000B68002B01DB00200EE71B4A12681B4957
:1037A0008B4207D01A498B420FD01A498B4217D04F
:1037B000002001E7A0235B041A4013490B68164858
:1037C00003401A430A600020F6E6C0231B041A4097
:1037D0000D490B68104803401A430A600020EBE6CD
:1037E000C0235B041A4008490B680B4803401A4386
:1037F0000A600020E0E60020DEE60220DFE6C046A8
:103800000400008000FFFF0708270140001000B0FF
:10381000004000B8002000B4FFFF3FFE4C0C002029
:10382000400D030030B583B004000023019303680A
:103830009A68D2074FD49968284A114211D19A68E0
:1038400027490A4001210A439A60264B1B681B0244
:1038500017D5254B18682549FCF732FC013001903B
:103860000CE0836D102213438365C36D0F3A13433D
:10387000C365012030E0019B013B0193019B002BBC
:10388000F9D1637E012B01D1002025E0FFF7E2FC96
:10389000050023681A68D2071BD49A68D20705D49A
:1038A0009A680F490A4001210A439A60FFF7D2FC47
:1038B000401B0228EDD923681B68DB07E9D4A36D00
:1038C00010221343A365E36D0F3A1343E365012010
:1038D00002E0002000E0002003B030BD17000080AF
:1038E000E8FFFF7F082701404C0C0020400D03003B
:1038F00010B5040003689B685B0724D45423C35CA1
:10390000012B22D054230122C254FFF78BFF002841
:1039100015D1A26D0E4B1A4080235B001343A365A3
:103920000023E36522681C2111605422A3542268FD
:10393000936808490B4004210B43936004E054232F
:103940000022E25400E0022010BD0220FCE7C04645
:10395000FEF0FFFFE8FFFF7F70B5002811DB830852
:10396000134DC0339B005C5903221040C000FC3251
:1039700016008640B44389010A40824022435A51CE
:1039800070BD0F230340083B9B0806339B00094A88
:10399000944663445C6803221040C000FC3215006A
:1039A0008540AC4389010A40824022435A60E7E7E0
:1039B00000E100E000ED00E0002805DB1F231840D7
:1039C0001E3B8340014A13607047C04600E100E09F
:1039D000F0B5002359E086685F000324BC40A6438D
:1039E000CC68BC4034438460446894434E683609D4
:1039F000012232409A402243426056E0DE080836F7
:103A0000B600375805321A4092000F249440A7435D
:103A10000C69944022003A43325059E0032600E0FA
:103A20000026A64034003C43424E18329200945186
:103A30003768EA433E00AE434C68E40201D53E00DD
:103A40002E433C4C266067683E0016404C68A4023A
:103A500001D53E002E43374C66608426A7593E00B0
:103A600016404C68A40301D53E002E43314C8427F8
:103A7000E6518026A65932404C68E40301D52A005D
:103A800032432C4D80242A5101330C682200DA4045
:103A90004ED001229A40250015401442F4D04E68C1
:103AA00003243440013C012C95D94C680322224068
:103AB000032A08D0C4685E000322B24094438A6897
:103AC000B2402243C2604C6803222240022A95D0B1
:103AD00004685E0003221700B740BC434F683A40B9
:103AE000B240224302604C68C02292021442CBD002
:103AF0009A0814001834A4000E4EA75903241C4041
:103B0000E4000F26A640B743A026F605B04287D0B2
:103B1000094EB04208D0094EB04207D0084EB0421C
:103B200000D17BE705267CE701267AE7022678E7C5
:103B3000F0BDC046001802400004005000080050CC
:103B4000000C005003690B4201D001207047002097
:103B5000FCE7002A01D0816170478162FCE7000028
:103B600010B50400094BDB68184204D1074B1B69F0
:103B7000234205D110BD054BD860FCF735FEF5E7B3
:103B8000024B1C612000FCF77DFDF3E700180240AA
:103B9000026893699B0701D50023936203689A69C1
:103BA000D20703D49A6901210A439A617047000041
:103BB00010B58905890D120411431943029B19435D
:103BC00049004908046862685B0D8020C00003401A
:103BD000034803439A4313000B43636010BDC04680
:103BE000FF63FF03F0B5C64600B504000E00904623
:103BF00001688B69102217001F401A4248D0102319
:103C0000CB610025206883699B063AD4002D38D10A
:103C1000731CF7D0FFF71EFB4346C01AB04201D811
:103C2000002EEFD121684B688022D201134042223E
:103C3000A25CD2B28869000403D5002B01D1202AEE
:103C400016D123689B699B06DCD4FFF703FB434630
:103C5000C01A1928F5D9636C2022134363644123E9
:103C6000E25400232232A354023AA3540125E8E788
:103C70004A688023DB0113434B60FFF7EBFA804671
:103C8000DFE7002D37D12023C3610427013500E091
:103C9000002522689369D90504D501210F43FF311E
:103CA000D16101255A0506D50822174322688021D3
:103CB000C900D16101259B051FD502231F4323683D
:103CC00080229200DA6101252000FFF761FF22685F
:103CD00053680B490B405360636C3B43636441235F
:103CE0002022E25400232232A354023AA354280093
:103CF00080BCB846F0BD0427CBE7002DF7D0E3E742
:103D000000E800FE70B504000D00160023689B69F2
:103D10009B071CD4320029002000FFF763FF002816
:103D200017D16B1CF2D0FFF795FA801BA84201D87F
:103D3000002DEBD1636C2022134363644123E254D2
:103D400000232232A354023AA354012000E00020B1
:103D500070BD0120FCE7F0B5C64600B507000D00B8
:103D600090461E003B689C692C40641B63425C418A
:103D7000444516D1731CF5D0FFF76CFA069BC01AA8
:103D8000B04201D8002EEDD17B6C202213437B641E
:103D90004123FA5400232232BB54023ABB5401207F
:103DA00000E0002080BCB846F0BD000070B582B0D5
:103DB000040015001E008023F2B2194800905B0435
:103DC0002000FFF7F5FE079A06992000FFF79AFFFB
:103DD00000281ED1012E0ED12368EDB29D62079BF3
:103DE0000093069B002280212000FFF7B4FF0028EB
:103DF00013D102B070BD23682A0A9A62079A069905
:103E00002000FFF77FFF002805D12368EDB29D62F7
:103E1000E5E70120EDE70120EBE70120E9E7C046F7
:103E20000020008070B582B0040015001E00DAB2D8
:103E3000184B00930023FFF7BBFE079A069920005A
:103E4000FFF760FF00281ED1012E0ED12368EDB2CE
:103E50009D62079B0093069B002240212000FFF7F4
:103E60007AFF002813D102B070BD23682A0A9A6233
:103E7000079A06992000FFF745FF002805D123681F
:103E8000EDB29D62E5E70120EDE70120EBE70120BF
:103E9000E9E7C0460020008070B505000C00160060
:103EA0002B689B699B061AD4320021002800FFF77B
:103EB00099FE002815D1FFF7CDF9801BA04201D84B
:103EC000002CEDD16B6C202213436B644123EA5428
:103ED00000232232AB54023AAB54012070BD0020C3
:103EE000FCE70120FAE7000010B5041E59D0412379
:103EF000C35C002B43D041232422E2542268136880
:103F000001218B4313606368226827490B401361CA
:103F10002268936825490B409360E368012B34D0F5
:103F2000A168226884231B020B439360E368022B81
:103F300032D0226851681E4B0B4353602268D3680D
:103F40001A490B40D360236962691343A2691202C4
:103F500021681343CB60E369216A22680B43136035
:103F60002268136801210B4313600023636441221C
:103F70001F31A15423630132A354002010BD4033EC
:103F80000022C254FEF742FDB5E7A16822688023F3
:103F90001B020B439360C9E72368802212015A6019
:103FA000C7E70120EAE7C046FFFFFFF0FF7FFFFF02
:103FB00000800002F0B587B00400039104920593DD
:103FC0000CAB20CB1F884123C35C202B00D0B3E077
:103FD000002D18D0002F16D04023C35C012B00D138
:103FE000ADE040230122C254FFF734F906008021DE
:103FF00000901923012209022000FFF7ACFE0028DF
:1040000006D0012099E080239B006364012094E0A6
:1040100041232122E25401331F32E254002363641E
:1040200065626785636301960E9B0093059B049A06
:1040300003992000FFF7BAFE00280FD1638D9BB2D1
:10404000FF2B10D9FF2323857F3B002200925B04C6
:10405000FF3203992000FFF7ABFD21E0402300224F
:10406000E254012069E0628D92B222858023D2B2AF
:10407000002100919B0403992000FFF799FD0FE0B8
:10408000628D92B222858023D2B2002100919B04DE
:1040900003992000FFF78CFD638D9BB2002B34D079
:1040A00032000E992000FFF72DFE002849D1626AE8
:1040B000236812789A62636A01336362638D013BFD
:1040C0009BB26385238D013B9BB22385628D92B2A7
:1040D000002AE1D0002BDFD100960E9B0022802128
:1040E0002000FFF738FE00282DD1638D9BB2FF2BF7
:1040F000C6D9FF2323857F3B002200925B04FF3259
:1041000003992000FFF754FDC6E732000E99200006
:10411000FFF7C2FE002818D123682022DA61216847
:104120004B680B4D2B404B604123E254002322325D
:10413000A354023AA35400E0022007B0F0BD0220CD
:10414000FBE70120F9E70120F7E70120F5E7C0468A
:1041500000E800FEF0B587B00400039104920593D7
:104160000CAB20CB1F884123C35C202B00D0B5E0D3
:10417000002D18D0002F16D04023C35C012B00D196
:10418000AFE040230122C254FFF764F8060080210B
:1041900000901923012209022000FFF7DCFD00280E
:1041A00006D001209BE080239B006364012096E001
:1041B00041232222E25401331E32E254002363647D
:1041C00065626785636301960E9B0093059B049A65
:1041D00003992000FFF726FE00280FD1638D9BB2C4
:1041E000FF2B10D9FF2323857F3B424A00925B04BB
:1041F000FF2203992000FFF7DBFC21E0402300228F
:10420000E25401206BE0628D92B222858023D2B20B
:10421000384900919B0403992000FFF7C9FC0FE087
:10422000628D92B222858023D2B2002100919B043C
:1042300003992000FFF7BCFC638D9BB2002B36D0A6
:1042400000960E9B002204212000FFF784FD002829
:1042500049D123685A6A636A1A70636A01336362D8
:10426000238D013B9BB22385628D013A92B2628518
:10427000628D92B2002ADFD0002BDDD100960E9B1A
:10428000002280212000FFF766FD00282DD1638DDC
:104290009BB2FF2BC4D9FF2323857F3B00220092D2
:1042A0005B04FF3203992000FFF782FCC4E7320071
:1042B0000E992000FFF7F0FD002818D12368202276
:1042C000DA6121684B680C4D2B404B604123E2546E
:1042D00000232232A354023AA35400E0022007B084
:1042E000F0BD0220FBE70120F9E70120F7E70120FC
:1042F000F5E7C0460024008000E800FEF0B5CE4699
:10430000474680B585B00600894690461D000023CB
:1043100003934133C35C202B00D0A6E003689B6964
:104320001B0400D5A3E04023C35C012B00D1A0E017
:1043300040230122C25401332332C2540023436478
:10434000F368012B18D04B469A05920DA0239B01D0
:10435000134332685360FEF77DFF070032689169AE
:1043600020230B40591E8B41DBB29269102414406C
:10437000621E9441E4B212E04B469A05920D414B05
:104380001343E6E73268916920230B40591E8B41A5
:10439000DBB2926910241440621E9441E4B21C43C3
:1043A00017D16B1CEED0FEF755FFC01BA84201D8F9
:1043B000002DE7D120224123F254736C1343736420
:1043C00040230022F254012005B0C0BCB946B046DB
:1043D000F0BD33689B69DB0622D500972B000022D5
:1043E00020213000FFF7B7FC002846D133681022A7
:1043F000DA6133681032DA61039B434522D0039BB4
:1044000001330393039B43459AD320224123F25463
:10441000736C1343736440230022F2540120D3E7EA
:1044200000972B00002220213000FFF794FC002889
:1044300021D132682023D3614122B354203300229A
:10444000F254C1E7326851688023DB010B435360AB
:1044500000972B00002220213000FFF77CFC002871
:104460000DD133682022DA61C9E70220ACE70220CF
:10447000AAE70220A8E70120A6E70120A4E701207F
:10448000A2E7C04600200002F0B54123C35C202B08
:1044900020D12033C35C012B1ED0402401220255C1
:1044A00041252423435506683368934333600668E7
:1044B00033680A4F3B403360066833680B43336010
:1044C00001680B6813430B602023435500230355F9
:1044D0000020F0BD0220FCE70220FAE7FFEFFFFF1B
:1044E000F0B54123C35C202B1ED12033C35C012BCC
:1044F0001CD040240122025541252423435506683F
:1045000033689343336006683368094F3B400902C0
:104510001943316001680B6813430B602023435536
:10452000002303550020F0BD0220FCE70220FAE73B
:10453000FFF0FFFF10B5104A136810490B4003430A
:10454000136080239B00984201D0002010BD0C4BCB
:104550001B685800C01840000A49FBF7B1FD013044
:10456000054B5B695B0503D5002803D00138F7E7ED
:104570000020EBE70320E9E700700040FFF9FFFFB0
:104580004C0C002040420F0070B582B0041E00D1D8
:1045900029E20368DB0739D5C14A916838230B400B
:1045A000D16803220A40102B26D0082B26D063683E
:1045B0008022520293427FD0A022D202934200D1A5
:1045C00081E0B74B1A68B7490A401A601A68B649C1
:1045D0000A401A606368002B00D180E0FEF73AFEC3
:1045E0000500AF4B1B689B0310D4FEF733FE401B46
:1045F0006428F6D90320F7E1032AD6D1A84B1B681B
:104600009B0303D56368002B00D1EFE123689B0770
:1046100031D5A34A916838230B40D16803220A4060
:10462000102B6AD0002B6BD19D4A1268520503D51E
:10463000E268002A00D1DBE1994842689B490A40C0
:10464000616909020A434260002B0DD10368984951
:104650000B4021690B4303600368DB0A07221A4001
:10466000944BD340944A1360944B1868FEF7EEFACB
:10467000002800D0BEE123681B0700D481E0884BEE
:104680009A6838231340182B73D0A369002B00D1EC
:10469000B4E0834A136E01210B431366FEF7DAFD83
:1046A00005007F4B1B6E9B076BD4FEF7D3FD401BB1
:1046B0000228F6D9032097E1794A116880235B022A
:1046C0000B43136086E7764B19688022D2020A43B7
:1046D0001A601968802252020A431A607AE7FEF7CC
:1046E000B9FD05006E4B1B689B038FD5FEF7B2FD2D
:1046F000401B6428F6D9032076E1022A92D193E781
:10470000E368002B22D0664A136869490B4021698F
:104710000B431360116880235B000B431360FEF7AB
:1047200099FD05005E4B1B685B0506D4FEF792FD04
:10473000401B0228F6D9032056E159494B685B4AD1
:1047400013406269120213434B6094E7544A1368A2
:104750005B490B401360FEF77DFD0500504B1B6865
:104760005B0588D5FEF776FD401B0228F6D90320AD
:104770003AE14B4B1B6E9B0703D5A369002B00D17D
:104780003AE123685B0700D4A2E0454B9A683823DE
:104790001340202B45D0424BDB6BDB004AD4404B0F
:1047A000DA6B802149050A43DA63DB6B0B40019326
:1047B000019B0125434B1B68DB053DD5A368012BFD
:1047C0004ED0052B52D0364BDA6D01218A43DA6583
:1047D000DA6D03318A43DA65A368002B50D0FEF707
:1047E00039FD06002E4BDB6D9B076FD4FEF732FDC3
:1047F000801B354B9842F5D90320F5E0284A136E0B
:1048000001218B431366FEF725FD0500244B1B6E2B
:104810009B07B6D5FEF71EFD401B0228F6D90320E4
:10482000E2E01F4BDB6D9B0752D5A368002B4FD1F5
:104830000120D9E00025BDE7224A116880235B00F2
:104840000B431360FEF706FD06001E4B1B68DB05DD
:10485000B4D4FEF7FFFC801B0228F6D90320C3E086
:104860000F4AD36D01210B43D365B5E70C4BDA6DCD
:1048700004210A43DA65DA6D03390A43DA65ABE7E6
:10488000FEF7E8FC0600064BDB6D9B071ED5FEF726
:10489000E1FC801B0C4B9842F5D90320A4E0C046F4
:1048A00000100240FFFFFEFFFFFFFBFFFF80FFFF46
:1048B000FFC7FFFF0024F4004C0C0020540C002024
:1048C000FFFEFFFF0070004088130000012D1ED086
:1048D000E369002B00D191E04F4A916838220A40E9
:1048E000102A5ED0022B18D04B4A13684B490B405C
:1048F0001360FEF7AFFC0400474B1B689B0149D5D2
:10490000FEF7A8FC001B0228F6D903206CE0424AFF
:10491000D36B43490B40D363DAE73F4A13683F49FF
:104920000B401360FEF796FC05003B4B1B689B0198
:1049300006D5FEF78FFC401B0228F6D9032053E072
:10494000354AD36837491940236A606A0343A06A2D
:1049500000020343E06A0343206B03430B43D3602D
:10496000116880235B040B431360D16880235B05CF
:104970000B43D360FEF76EFC0400274B1B689B01C2
:1049800006D4FEF767FC001B0228F6D903202BE0B3
:10499000002029E0204AD36823490B40D36000203F
:1049A00022E0012B2CD01C4BDA6803231340216A30
:1049B0008B4227D170231340616A8B4224D1FE21A0
:1049C000C9011140A36A1B0299421FD1F8239B031E
:1049D0001340E16A8B421BD1520F5207236B9A425C
:1049E00018D1002000E0012002B070BD0120FBE7DB
:1049F0000120F9E70120F7E70120F5E70020F3E7C0
:104A00000120F1E70120EFE70120EDE70120EBE7CE
:104A10000120E9E70120E7E700100240FFFFFFFE69
:104A2000FFFFFFEF8C80C11FFCFFFEEF10B52A4B8C
:104A30009B6838221A4207D1274B1A68D20A0723EB
:104A400013402648D84010BD234B9A6838231340A2
:104A5000082B3BD0204B9A6838231340102B0DD0E5
:104A60001D4B9A6838231340202B31D01A4B9A687B
:104A700038231340182B26D00020E4E7164AD168CB
:104A80000D3B0B40D2681209072111400131032B65
:104A90000FD01248FBF714FB0F4BDA68120A7F2382
:104AA000134058430C4BD968490F0131FBF708FB01
:104AB000C9E70B48FBF704FB074BDA68120A7F23B0
:104AC00013405843EEE7FA20C001BCE70448BAE7B8
:104AD00080200002B7E7C046001002400024F40026
:104AE000001BB70070B504000D00002800D1AAE03B
:104AF000574B1A68072313408B4221D323689A0728
:104B00000ED55B0705D5534A9168E023DB010B43C3
:104B10009360504A936850490B40A1680B439360DF
:104B20002368DB0754D56368012B20D0022B3BD0D0
:104B3000002B3FD1474A126852051CD401206AE07D
:104B4000434A136807218B432B431360FEF782FB14
:104B500006003F4B1A6807231340AB42CED0FEF746
:104B600079FB801B3D4A9042F3D9032053E0394A38
:104B70001268920369D537498A6807208243134334
:104B80008B60FEF767FB0600324B9B6838221A40A9
:104B90006368DB009A421BD0FEF75CFB801B2F4B47
:104BA0009842F1D9032036E02A4A12689201E2D4F1
:104BB000012030E0032B05D0264AD26D9207DAD4CB
:104BC000012028E0234A126E9207D4D4012022E06B
:104BD0001F4B1A6807231340AB421DD823685B079D
:104BE00006D51C4A93681E490B40E1680B4393604D
:104BF000FFF71CFF174B9A68120A0F231340194A3C
:104C00009B009A581F231340D840174B1860174B2E
:104C10001868FEF71BF870BD0D4A136807218B4317
:104C20002B431360FEF716FB0600094B1A68072397
:104C30001340AB42D2D0FEF70DFB801B074B9842CE
:104C4000F3D90320E7E70120E5E70120E3E7C046C9
:104C50000020024000100240FFF0FFFF8813000018
:104C6000FF8FFFFFBC4001084C0C0020540C0020BB
:104C7000014B18687047C0464C0C002010B5FFF778
:104C8000F7FF064B9A68120B07231340044A9B0058
:104C90009A581F231340D84010BDC0460010024050
:104CA000FC40010830B507230360094A94681C40A2
:104CB00044609468F0252D012C4084609268E024C3
:104CC000E4012240C260034A126813400B6030BD09
:104CD0000010024000200240F0B583B004000368D9
:104CE0009B0362D5584BDB6BDB001ED4564BDA6B53
:104CF000802149050A43DA63DB6B0B400193019B7A
:104D00000126524A116880235B000B431360FEF7B3
:104D1000A1FA05004D4B1B68DB0508D4FEF79AFA93
:104D2000401B0228F6D9032502E00026E9E700250A
:104D3000002D23D1444BD96DC02292000B001340AB
:104D4000114210D0A2699A420DD03F4AD36D40491A
:104D50000B40D06D802149020143D165D16D3D48A2
:104D60000140D165D365DB0710D4002D06D1364A4A
:104D7000D36D37490B40A1690B43D365012E15D183
:104D8000314AD36B34490B40D3630FE0FEF762FA2C
:104D900007002D4BDB6D9B07E7D4FEF75BFAC01BCA
:104DA0002E4B9842F5D90325DFE700252368DB0762
:104DB00006D5254A536D03218B4361680B43536528
:104DC00023689B0706D5204A536D0C218B43A168AD
:104DD0000B43536523689B0606D51B4A536D204938
:104DE0000B40E1680B43536523685B040BD5164AFF
:104DF000536D9B009B0861690B4353656269802377
:104E0000DB059A4211D023681B050BD50E4A536D62
:104E100014490B4021690B43536522698023DB0150
:104E20009A4209D0280003B0F0BD074AD168802318
:104E30005B020B43D360E6E7034AD16880235B0241
:104E40000B43D360EEE7C046001002400070004004
:104E5000FFFCFFFFFFFFFEFFFFFFFFEF88130000D7
:104E6000FFCFFFFFFF3FFFFFF0B5D6464F46464658
:104E7000C0B582B006000D0090461F00FEF7EAF9AB
:104E80000A9B181A8146B944FEF7E4F982462E4B74
:104E90001B685B011B0D4A465343019333689C68B2
:104EA0002C40641B63425C41444545D07B1CF5D0DB
:104EB000FEF7D0F95346C01A48450BD24B46002B9B
:104EC00008D0019A002A00D04A46019B013B019379
:104ED0009146E3E732685368E0218B435360726880
:104EE00082235B009A420CD0B26A80239B019A42D3
:104EF00016D05D230122F254013B0022F25403201C
:104F00001BE0B36880221202934203D08022D200B9
:104F10009342E9D13268136840218B431360E3E781
:104F20003268136809490B401360326811688023A6
:104F30009B010B431360DCE7002002B0E0BCBA46E3
:104F4000B146A846F0BDC0464C0C0020FFDFFFFF75
:104F5000F0B5DE4657464E464546E0B583B00700FD
:104F60000D00160098466B460022DA70FEF772F9C3
:104F70000C9B181A40448146FEF76CF982463B6848
:104F80009B46364B1B689A00D218D3009B1A1B0D08
:104F90004A465343019302E04346013311D13B6833
:104FA0009C682C40B44250D0C023DB009D42F3D11A
:104FB000002EF1D15B461B7BDBB26A46D370D378FF
:104FC000EAE7FEF747F95346C01A48450BD24B466D
:104FD000002B08D0019A002A00D04A46019B013BD1
:104FE00001939146DBE73A685368E0218B435360B5
:104FF0007A6882235B009A420CD0BA6A80239B01B4
:105000009A4216D05D230122FA54013B0022FA5441
:1050100003201BE0BB6880221202934203D080224F
:10502000D2009342E9D13A68136840218B43136060
:10503000E3E73A6813680A490B4013603A6811685D
:1050400080239B010B431360DCE7002003B0F0BC1E
:10505000BB46B246A946A046F0BDC0464C0C002057
:10506000FFDFFFFF70B582B004000D001600C02105
:1050700000922B0000224901FFF76AFF002818D197
:1050800000962B00002280212000FFF7EDFE002873
:1050900016D1C02100962B000022C9002000FFF786
:1050A00057FF00280AD0236E2022134323660320D3
:1050B00004E0236E202213432366032002B070BD58
:1050C000236E2022134323660320F7E770B5041EE6
:1050D00000D178E0436A002B07D142680533FF33E3
:1050E0009A4205D00023C36102E0002303614361BB
:1050F0000023A3625D33E35C002B5AD05D230222C0
:10510000E2542268136840218B431360E368E02275
:10511000D200934254D90022F02109018B4205D0DC
:10512000E021C9008B4201D00023A3626368822181
:1051300049000B40A1688420000201400B43206914
:10514000022101400B436069012108400343A0692B
:105150008025AD0028400343E569382028400343FB
:10516000256A802028400343A06A8025AD0128409D
:10517000256803432B60608B04230340656A10207D
:1051800028400343656B082028400343E068F0256E
:105190002D01284003432068134343602268D369EC
:1051A0000A480340D361002323665D33E1540020A5
:1051B00070BD5C330022E2542000FDF7F7FC9DE750
:1051C00080225201A8E70120F2E7C046FFF7FFFF67
:1051D000F0B5CE4600B584B00400019191461D00A3
:1051E0005C23C35C012B00D1C9E05C230122C254C3
:1051F000FEF730F806005D23E35CDFB2012B00D040
:10520000A9E00199002900D1A6E04B46002B00D16E
:10521000A2E05D230322E25400232366A1634A46F1
:10522000A287E28723644422A3520232A352236559
:10523000E364A26880231B029A421ED0226813688E
:105240005B0603D4136840210B431360E268E0233C
:10525000DB009A4239D96368002B02D04B46012B00
:1052600020D1A26B23681288DA60A36B0233A36398
:10527000E38F013B9BB2E38714E02268136840216F
:105280008B431360226811688023DB010B4313609A
:10529000D4E7FDF7DFFF801BA84201D36B1C66D16A
:1052A000002D66D0E18F89B200293CD02268936836
:1052B0009B07EED5A36B1B88D360A36B0233A3635C
:1052C000E38F013B9BB2E387ECE76368002B02D0DE
:1052D0004B46012B14D1A26B236812781A73A36B6F
:1052E0000133A363E38F013B9BB2E38708E0FDF743
:1052F000B1FF801BA84201D36B1C3CD1002D3CD0D8
:10530000E18F89B200290ED0226893689B07EED501
:10531000A36B1B781373A36B0133A363E38F013B70
:105320009BB2E387ECE7320029002000FFF79AFEEA
:10533000002801D020232366A368002B06D1039305
:105340002368DA6803929B680393039B236E002B08
:1053500002D1002700E002275D230122E254013B35
:105360000022E254380004B080BCB946F0BD0327E7
:10537000F2E70327F0E70327EEE70327ECE702272E
:10538000F0E7000030B5036A012293430362056A27
:1053900042688369194C23400C681C4302239D43D7
:1053A0008B682B43164DA84208D0164DA84205D055
:1053B000154DA84202D0154DA84206D10825AB4391
:1053C0001D00CB682B430425AB430D4DA84208D0EC
:1053D0000C4DA84205D00C4DA84202D00B4DA8425E
:1053E00005D10B4D2A404D6915438A692A43426015
:1053F00084614A684263036230BDC0468CFFFEFF91
:10540000002C0140004001400044014000480140A0
:10541000FFFCFFFF30B5036A194A13400362046AB8
:105420004268C369174D2B400D681D43164B1C4045
:105430008B681B022343154CA04219D0134CA04289
:1054400008D0134CA04205D0124CA04202D0124CFE
:10545000A04207D1114C22404C69240114438A69AF
:10546000120122434260C5614A68C263036230BDD3
:105470000B4C1C40CB681B0223430A4C2340DDE746
:10548000FFFEFFFF8CFFFEFFFFFDFFFF002C014032
:10549000004001400044014000480140FFCFFFFFB1
:1054A000FFF7FFFFFFFBFFFF30B5036A134A13400E
:1054B0000362046A4368C269114D2A400D682D02D7
:1054C0001543104A14408A68120322430E4CA0422E
:1054D00008D00E4CA04205D00D4CA04202D00D4C7D
:1054E000A04204D10C4C1C404B699B0123434360F8
:1054F000C5614B680364026230BDC046FFEFFFFF29
:10550000FF8CFFFEFFDFFFFF002C01400040014049
:105510000044014000480140FFBFFFFF30B5036A6F
:10552000124A13400362046A4368426D104D2A40D8
:105530000D6815430F4A14408A68120422430E4C2A
:10554000A04208D00D4CA04205D00D4CA04202D084
:105550000C4CA04204D1054C1C404B691B02234358
:10556000436045654B688365026230BDFFFFFEFF07
:105570008FFFFEFFFFFFFDFF002C014000400140B8
:10558000004401400048014030B5036A134A13400B
:105590000362046A4368426D114D2A400D682D0272
:1055A0001543104A14408A68120522430E4CA0424B
:1055B00008D00E4CA04205D00D4CA04202D00D4C9C
:1055C000A04204D10C4C1C404B699B022343436016
:1055D00045654B68C365026230BDC046FFFFEFFF03
:1055E000FF8FFFFEFFFFDFFF002C01400040014066
:1055F0000044014000480140FFFFFBFF30B5036A53
:10560000046A0125AC4304628469EF35AC4312019E
:1056100022430A24A3430B438261036230BD00008E
:1056200030B5036A1024A34303628469036A054DFD
:105630002C4012032243A024A34309011943826191
:10564000016230BDFF0FFFFF8368034A13400B4325
:1056500007221343836070478FFFCFFF3D23C35C56
:10566000012B20D13C330222C2540368114A9342D9
:105670000BD0114A934208D0104A934205D01A68C1
:1056800001210A431A6000200EE09A680C490A4082
:10569000062A0AD007398A4209D01A6801210A432A
:1056A0001A60002000E0012070470020FCE7002085
:1056B000FAE7C046002C01400004004000400140D1
:1056C000070001000368196A074A114207D1196AE5
:1056D000064A114203D11A6801218A431A603D2308
:1056E0000122C25400207047111100004404000040
:1056F0003D23C35C012B25D13C330222C2540268F6
:10570000D36801210B43D3600368114A93420BD045
:10571000104A934208D0104A934205D01A680121DA
:105720000A431A6000200EE09A680C490A40062AD3
:105730000AD007398A4209D01A6801210A431A603F
:10574000002000E0012070470020FCE70020FAE77D
:10575000002C01400004004000400140070001000F
:10576000704770477047704710B5040002681369AE
:105770009B070FD5D3689B070CD503235B421361AE
:105780000433037703689B699B076AD0FFF7E9FF3F
:1057900000232377226813695B0712D5D3685B0760
:1057A0000FD505235B4213610733237723689A697A
:1057B000C0239B001A425AD02000FFF7D2FF0023DB
:1057C0002377226813691B0710D5D3681B070DD5F3
:1057D00009235B4213610D3323772368DB699B0741
:1057E0004CD02000FFF7BDFF002323772268136908
:1057F000DB0612D5D368DB060FD511235B4213619C
:10580000193323772368DA69C0239B001A423CD0FE
:105810002000FFF7A6FF0023237722681369DB0728
:1058200002D5D368DB0737D4226813691B0602D57B
:10583000D3681B0637D422681369DB0502D5D36809
:105840001B0637D4226813695B0602D5D3685B0652
:1058500036D4226813699B0602D5D3689B0636D4DA
:1058600010BDFFF77DFF2000FFF77CFF90E72000D1
:10587000FFF776FF2000FFF775FFA0E72000FFF796
:105880006FFF2000FFF76EFFAEE72000FFF768FF15
:105890002000FFF767FFBEE702235B421361200091
:1058A000FDF7F8F8C0E781235B421361200000F0A8
:1058B000E2FBC0E7094B1361200000F0DDFBC1E70C
:1058C00041235B4213612000FFF74DFFC1E7212315
:1058D0005B421361200000F0CDFBC1E7FFFEFFFF3C
:1058E00003681D4A904202D01C4A904203D17022A4
:1058F00093434A681343184A90420ED0174A904285
:105900000BD0174A904208D0164A904205D0164A4A
:10591000904202D0154A904203D1154A1A40CB68F2
:105920001343802293434A69134303608B68C36225
:105930000B688362084B984208D00A4B984205D006
:10594000094B984202D0094B984201D10B6903637D
:10595000012343617047C046002C01400004004011
:105960000020004000400140004401400048014048
:10597000FFFCFFFF70B5041E2AD03D23C35C002B43
:1059800020D03D2502236355210001C9FFF7A8FF60
:1059900001234822A3540A3AA3540132A3540132EA
:1059A000A3540132A3540132A3540132A35401324F
:1059B000A3540132A3540132A3540132A3546355BA
:1059C000002070BD3C330022C254FDF72FFAD8E707
:1059D0000120F6E770B5041E2AD03D23C35C002BDE
:1059E00020D03D2502236355210001C9FFF778FF30
:1059F00001234822A3540A3AA3540132A35401328A
:105A0000A3540132A3540132A3540132A3540132EE
:105A1000A3540132A3540132A3540132A354635559
:105A2000002070BD3C330022C254FDF72FFAD8E7A6
:105A30000120F6E770B5036A102293430362026AFD
:105A400044688369174D2B400D682D021D432023A8
:105A50009A438B681B011343134A904219D0124A90
:105A6000904208D0114A904205D0114A904202D08B
:105A7000104A904207D1104A14404A6992002243CA
:105A80008C69A4001443446085614A6882630362A0
:105A900070BD802293431E00CB681B013343403A04
:105AA0009343DCE7FF8CFFFE002C014000400140E7
:105AB0000044014000480140FFF3FFFF70B50400BF
:105AC0000D003C23C35C012B00D192E03C2301215B
:105AD000C154142A00D987E09200474B9B589F4637
